:040000000DEF00F010
:04000800FEEF08F00F
:06001800FF00A5EF0AF055
:10100000000E130000E4130000000000000000D4F4
:10101000140000000000EDEC0AF00009D8B413EF52
:1010200008F015EF08F01DEF08F0030E0B6E3D0100
:10103000769B11EC0AF065EF08F0F8EC0AF0000975
:10104000D8B425EF08F027EF08F039EF08F0CCEC22
:101050000AF00009D8B42FEF08F031EF08F039EFAB
:1010600008F0010E0B6E3D01769992EC0AF065EFE7
:1010700008F0D7EC0AF00009D8B441EF08F043EFCC
:1010800008F053EF08F0CCEC0AF00009D8B44BEFAD
:1010900008F04DEF08F053EF08F0020E0B6E3D0123
:1010A000769935EF08F0E2EC0AF00009D8B45BEF6E
:1010B00008F05DEF08F063EF08F0030E0B6E3D01E2
:1010C000769D65EF08F03D0176990B501200BA6AE3
:1010D000BB6A180EBC6EBD6ABE6ABF6A3A01426B3B
:1010E000526B180E626F726B826B926BC268C36830
:1010F000E70EC46EC568070EC66EC76840695069C2
:10110000E70E606F7069070E806F9069416B516BDD
:10111000616B716B816B916B43695369636973692F
:10112000070E836F936944695469646974690F0E8B
:10113000846F94695A6B5B6B6A6B6B6B7A6B7B6BBE
:10114000130EE16F210E136F140EE26F220E146F57
:10115000456B466B476B556B566B576B656B666B98
:10116000676B856B866B876B12003D017AA5BBEFC1
:1011700008F0BDEF08F0C8EF08F079A5C2EF08F05D
:10118000C4EF08F0C8EF08F0B4EC0AF0FDEF08F087
:101190007AAFCDEF08F0CFEF08F0EBEF08F079AFC2
:1011A000D4EF08F0D6EF08F0EBEF08F00A50D8B40F
:1011B000DCEF08F0DEEF08F0E5EF08F00A6A79915D
:1011C000799F7FEC0AF0FDEF08F092EC0AF0B4ECA6
:1011D0000AF0FDEF08F07AA3F0EF08F0F2EF08F064
:1011E000FDEF08F079A3F7EF08F0F9EF08F0FDEF55
:1011F00008F078EC0BF03D0179931200390193A5CA
:1012000004EF09F006EF09F011EF09F0A3A50BEFC9
:1012100009F00DEF09F011EF09F00BEC08F045EFC4
:1012200009F092AF16EF09F018EF09F023EF09F07B
:10123000A2AF1DEF09F01FEF09F023EF09F033EC27
:101240000BF045EF09F093A328EF09F02AEF09F01E
:1012500035EF09F0A3A32FEF09F031EF09F035EFD7
:1012600009F0B5EC08F045EF09F093A13AEF09F069
:101270003CEF09F045EF09F0A3A141EF09F043EF7E
:1012800009F045EF09F00EEC0BF0110018EC0BF033
:10129000D28E520E266E2B0E256E000EE82EFED735
:1012A000252EFCD7262EFAD700D0B2EC09F0020E7C
:1012B0001D6E0B0ED3EC09F0070E1D6E090ED3EC5C
:1012C00009F0000E1D6E0E0ED3EC09F0110E266E05
:1012D0003C0E256ECB0EE82EFED7252EFCD7262EF3
:1012E000FAD700000E0E1D6E010ED3EC09F0520E5F
:1012F000266E2B0E256E000EE82EFED7252EFCD76F
:10130000262EFAD700D057EF09F00DEF00F0040EAB
:101310003D01736F800E746F080E756F030E7B6F47
:10132000796B7A6B766B6C6B510E3A016A6F510E6A
:101330006B6FC1EC0AF03D017A917A95738F050EBF
:10134000E82EFED7000000000000000000000000B2
:1013500000003D01799179957A85000E0E6E000EA0
:101360000F6E1200010E1D6E0C0ED3EC09F0000E74
:101370001D6E0B0ED3EC09F0010E1D6E090ED3ECA1
:1013800009F0070E1D6E0A0ED3EC09F0110E246E43
:101390003C0E236ECB0EE82EFED7232EFCD7242E38
:1013A000FAD700001200206E226A000E216E20C0C3
:1013B00021F01DC022F0196A000E186E210E1A6E5F
:1013C0001C6A020E1B6EF2EC09F0050E1F6E0F0E6A
:1013D0001E6EF10EE82EFED71E2EFCD71F2EFAD75A
:1013E000000012006AEC0AF00009D8A4FAEF09F034
:1013F000FCEF09F010EF0AF0010E016E18C002F0C8
:1014000019C003F00A6A1AC004F01BC005F01CC022
:1014100006F0076A096A000E086E0B6A4DEC0AF0C6
:1014200012007EEC0BF063EC0BF02AEC0BF068EC96
:101430000BF03D01739F03EC0BF03D017A917A951F
:10144000738F050EE82EFED700000000000000009C
:101450000000000000003D01799179957A85120025
:10146000D29A3901A191D280000E176E000E186E2B
:1014700045EC0BF03901A591D282000E176E000EDB
:10148000186E40EC0BF03901A79BD284000E176E4A
:10149000000E186E3BEC0BF0120005500610D8B48D
:1014A00054EF0AF056EF0AF063EF0AF005504AECE9
:1014B0000BF00A50D8B45FEF0AF061EF0AF063EF67
:1014C0000AF06FEC0BF0025002244FEC0BF06CECC6
:1014D0000BF01200010E176E0150D8A472EF0AF043
:1014E00074EF0AF07DEF0AF03D0177AF7AEF0AF072
:1014F0007CEF0AF07DEF0AF0176A175012000850CF
:101500000910D8B486EF0AF088EF0AF08BEF0AF0E2
:10151000085059EC0BF0D880023454EC0BF075EC09
:101520000BF0120078EC0BF07BEC0BF00009D8B458
:101530009CEF0AF09EEF0AF0A4EF0AF0000E59ECBF
:101540000BF0000E5EEC0BF0120000EE01F0150E39
:10155000EE6AE806FDE1080ED56E000ED66E000EAE
:10156000D76E000146EF09F0016A000E036E0268B3
:10157000046A076A7EEC0BF063EC0BF068EC0BF08E
:101580001200390193839385928F93813D017A856F
:101590007A837A8F768112003D0174BBD2EF0AF014
:1015A000D5EF0AF0010ED6EF0AF0000E12003D0151
:1015B00077B7DDEF0AF0E0EF0AF0010EE1EF0AF095
:1015C000000E12003D0176BDE8EF0AF0EBEF0AF0E5
:1015D000010EECEF0AF0000E12003D0176BBF3EFB6
:1015E0000AF0F6EF0AF0010EF7EF0AF0000E120013
:1015F0003D0177A7FEEF0AF001EF0BF0010E02EFBD
:101600000BF0000E1200390193839385928F938122
:101610003D017A857A837A8F7681120020EE04F07C
:10162000DF50DF2AD96EDA6ADF505EEC0BF0120071
:1016300021EC0BF067EC08F087EC09F030EC0AF0D5
:101640001200600E3901D96FDB6BDD6B080EDF6FA6
:10165000DE6B1200390193939395929F93913D0114
:101660007A6B766B12000750D96EDA6A72EC0BF067
:10167000DF6E072A120017C010F018C011F0120018
:1016800017C012F018C013F0120017C014F018C0E1
:1016900015F01200176E60005FF06CFD1200176EFF
:1016A00060005FF06EFD1200166E60005BF06EFD74
:1016B0001200166E60005BF06CFD1200166E60008A
:1016C0005BF06BFD12003D01769B769D76991200D2
:1016D0003D01786B788512003D01738B12003D014E
:1016E000738D12003D016A5112003D01738B12008F
:1016F0003D01739D12003D016C5112003D01796B5B
:021700001200D5
:020000040030CA
:0A0000008FFFF7FF9FFFFFFFFFFFD8
:00000001FF
