:040000000DEF00F010
:0400080056EF14F0AB
:06001800FF00E6EF16F008
:1010000000D83000000000000000000000000000D8
:10101000000000000000000000000000000000AC24
:1010200030000080330000000000000000000000DD
:1010300000D4320000742D0000A02E00000000003B
:10104000000000043100000000020000FF00024028
:101050000000000000004B010A09020A08030A0709
:10106000040A06050A05060A04070A03080A020913
:031070000A010072
:101074000750800B106E07500724126E06AE45EF22
:1010840008F047EF08F048EF08F012801250D8B487
:101094004EEF08F050EF08F064EF08F01228D8A4DF
:1010A40056EF08F058EF08F060EF08F0000E046EF9
:1010B400000E056E000E066E000E076E068E076AA1
:1010C4006CEF08F0000E046E000E056E000E066E46
:1010D400000E076E0B50800B116E10501118D8B40F
:1010E40076EF08F078EF08F079EF08F0108C0B50E9
:1010F4000B24116E0AAE81EF08F083EF08F084EF41
:1011040008F011801150D8B48AEF08F08CEF08F081
:10111400A0EF08F01128D8A492EF08F094EF08F09B
:101124009CEF08F0000E086E000E096E000E0A6EA9
:10113400000E0B6E0A8E0B6AA8EF08F0000E086E04
:10114400000E096E000E0A6E000E0B6E1250115C3A
:10115400D8B0AFEF08F0B1EF08F0D8EF08F010AC5A
:10116400B6EF08F0B8EF08F0BAEF08F0800E101AE6
:1011740012C013F011C012F013C011F004C013F028
:1011840008C004F013C008F005C013F009C005F04E
:1011940013C009F006C013F00AC006F013C00AF029
:1011A40007C013F00BC007F013C00BF0136A125002
:1011B40011C00CF00D6A0C5E000E0D5A0DBEECEF62
:1011C40008F00D5009E11A0E0C5CD8A0ECEF08F001
:1011D400EEEF08F025EF09F0045005100610071093
:1011E400D8A4F7EF08F0FAEF08F0010EFBEF08F0CF
:1011F400000E136E000E046E000E056E000E066ED9
:10120400000E076E11C012F02EEF09F013A00DEFBF
:1012140009F00FEF09F015EF09F0D8901330010928
:10122400136E17EF09F0D890133204A01CEF09F0E5
:101234001EEF09F01FEF09F0138E07340732063250
:1012440005320432122A1150125CD8A02CEF09F096
:101254002EEF09F008EF09F010BC33EF09F035EF79
:1012640009F075EF09F01250D8A43BEF09F03DEFF7
:1012740009F047EF09F0000E046E000E056E000E33
:10128400066E000E076E94EF0AF00850042609500B
:1012940005220A5006220B50072207A054EF09F03A
:1012A40056EF09F002EF0AF013A05BEF09F05DEFCF
:1012B40009F063EF09F0D89013300109136E65EF5C
:1012C40009F0D890133204A06AEF09F06CEF09F02A
:1012D4006DEF09F0138E07340732063205320432FB
:1012E400122A02EF0AF00850045C095005580A500B
:1012F40006580750800A0C6E0B50800A0C58D8B060
:1013040086EF09F088EF09F0B3EF09F00450085CA8
:101314000C6E055009580D6E06500A580E6E075093
:101324000B580F6EFF0E0C24046EFF0E0D20056E7D
:10133400FF0E0E20066EFF0E0F20076E800E101A91
:10134400136C1350D8A4A9EF09F0ABEF09F0BBEF6D
:1013540009F0010E0426000E052206220722BBEF27
:1013640009F00850045E0950055A0A50065A0B50F9
:10137400075A0450051006100710D8A4C4EF09F04A
:10138400C6EF09F0FBEF09F01350D8A4CCEF09F035
:10139400CEEF09F0FBEF09F0000E046E000E056EAF
:1013A400000E066E000E076E94EF0AF0D890043615
:1013B40005360636073613AEE2EF09F0E4EF09F01E
:1013C400E5EF09F0048013A0EAEF09F0ECEF09F06F
:1013D400F0EF09F0D8801336F2EF09F0D890133605
:1013E4001250D8B4F8EF09F0FAEF09F0FBEF09F066
:1013F400120606AE00EF0AF002EF0AF0D8EF09F089
:10140400116A13AE08EF0AF00AEF0AF022EF0AF0AD
:1014140013C00CF07F0E0C16D8B413EF0AF015EFBE
:101424000AF019EF0AF0010E116E22EF0AF004A07F
:101434001EEF0AF020EF0AF022EF0AF015EF0AF08F
:101444001150D8B428EF0AF02AEF0AF055EF0AF049
:10145400010E0426000E05220622072207A035EFFE
:101464000AF037EF0AF055EF0AF004C00CF005C09B
:101474000DF006C00EF007C00FF00F340F320E321D
:101484000D320C320CC004F00DC005F00EC006F095
:101494000FC007F01228D8B452EF0AF054EF0AF044
:1014A40055EF0AF0122A1228D8B45BEF0AF05DEF68
:1014B4000AF065EF0AF01250D8A463EF0AF065EF62
:1014C4000AF076EF0AF0000E046E000E056E000EB0
:1014D400066E000E076E1250D8A473EF0AF075EF73
:1014E4000AF076EF0AF0106A12A07BEF0AF07DEFA3
:1014F4000AF080EF0AF0068E81EF0AF0069ED8907B
:101504001230076E10AE89EF0AF08BEF0AF08CEF01
:101514000AF0078E04C004F005C005F006C006F00A
:1015240007C007F012002E50800B376E2E502E2469
:101534003D6E2DAEA0EF0AF0A2EF0AF0A3EF0AF081
:101544003D803D50D8B4A9EF0AF0ABEF0AF0BEEFEE
:101554000AF03D28D8A4B1EF0AF0B3EF0AF0BBEFCC
:101564000AF0000E2B6E000E2C6E000E2D6E000E77
:101574002E6E2D8EC6EF0AF0000E2B6E000E2C6E12
:10158400000E2D6E000E2E6E3250800B371A325024
:1015940032243C6E31AED1EF0AF0D3EF0AF0D4EF2F
:1015A4000AF03C803C50D8B4DAEF0AF0DCEF0AF0E1
:1015B400EFEF0AF03C28D8A4E2EF0AF0E4EF0AF0D7
:1015C400ECEF0AF0000E2F6E000E306E000E316E3E
:1015D400000E326E318EF7EF0AF0000E2F6E000E01
:1015E400306E000E316E000E326E3C50D8B4FDEFFA
:1015F4000AF0FFEF0AF007EF0BF03D50D8A405EF17
:101604000BF007EF0BF011EF0BF0000E2B6E000E3A
:101614002C6E000E2D6E000E2E6EB9EF0CF03150B4
:101624002B026F00CCFF42F06F00D0FF43F042501A
:10163400386E396A3A6A3B6A43503E6E3F6A406A82
:10164400416A30502C026F00CCFF42F06F00D0FF93
:1016540043F042503826000E39223A223B224350AE
:101664003E26000E3F22402241222F502D026F00C1
:10167400CCFF42F06F00D0FF43F042503826000EFA
:1016840039223A223B2243503E26000E3F2240227A
:1016940041223AC03BF039C03AF038C039F0386AD8
:1016A4002F502C026F00CCFF42F06F00D0FF43F0AC
:1016B4004250382643503922000E3A22000E3B2273
:1016C40030502B026F00CCFF42F06F00D0FF43F08C
:1016D4004250382643503922000E3A22000E3B2253
:1016E4003AC03BF039C03AF038C039F0386A2F506C
:1016F4002B026F00CCFF42F06F00D0FF43F042504A
:10170400382643503922000E3A22000E3B22315033
:101714002C026F00CCFF42F06F00D0FF43F0425028
:101724003E2643503F22000E4022000E41223050FC
:101734002D026F00CCFF42F06F00D0FF43F0425007
:101744003E2643503F22000E4022000E41223150DB
:101754002D026F00CCFF42F06F00D0FF43F04250E7
:10176400336E4350346E356A366A35C036F034C051
:1017740035F033C034F0336A33503E2634503F22C0
:10178400355040223650412238C033F039C034F04D
:101794003AC035F03BC036F0190ED6EF0BF0D890B6
:1017A4003632353234323332E82ED1EF0BF0335047
:1017B4003E2634503F2235504022365041223AC012
:1017C4003BF039C03AF038C039F0386A3C503DC07B
:1017D40033F0346A3326000E3422820E3324426EF0
:1017E400FF0E3420436E0CEF0CF0D8903E363F369B
:1017F400403641363BAE01EF0CF003EF0CF004EF42
:101804000CF03E80D890383639363A363B364206AC
:10181400D8A0430640AE11EF0CF013EF0CF0F7EF35
:101824000BF03C6A3BAE19EF0CF01BEF0CF03FEFF2
:101834000CF0FF0E3814336EFF0E3914346EFF0EA5
:101844003A14356E7F0E3B14366E33503410351017
:101854003610D8B430EF0CF032EF0CF036EF0CF059
:10186400010E3C6E3FEF0CF03EA03BEF0CF03DEF61
:101874000CF03FEF0CF032EF0CF03C50D8B445EFD5
:101884000CF047EF0CF06BEF0CF0010E3E26000E4F
:101894003F224022412241A052EF0CF054EF0CF0C1
:1018A4006BEF0CF03EC033F03FC034F040C035F075
:1018B40041C036F03634363235323432333233C006
:1018C4003EF034C03FF035C040F036C041F0424AEB
:1018D400432A43BE76EF0CF0435008E14228D8A0D7
:1018E40076EF0CF078EF0CF082EF0CF0000E3E6E09
:1018F400000E3F6E800E406E7F0E416EAFEF0CF017
:1019040043BE8FEF0CF0435006E14204D8B08DEF94
:101914000CF08FEF0CF09AEF0CF0000E3E6E000E00
:101924003F6E000E406E000E416E376AAFEF0CF052
:1019340042C03DF0FF0E3E16FF0E3F167F0E4016CE
:10194400000E41163DA0A9EF0CF0ABEF0CF0ACEF8C
:101954000CF0408ED8903D30416E375041123EC05D
:101964002BF03FC02CF040C02DF041C02EF01200EF
:101974001550800B226E15501524296E14AEC5EF38
:101984000CF0C7EF0CF0C8EF0CF029802950D8B444
:10199400CEEF0CF0D0EF0CF0E4EF0CF02928D8A433
:1019A400D6EF0CF0D8EF0CF0E0EF0CF0000E126E56
:1019B400000E136E000E146E000E156E148E156A52
:1019C400ECEF0CF0000E126E000E136E000E146E8F
:1019D400000E156E1950800B221A195019242A6E04
:1019E40018AEF7EF0CF0F9EF0CF0FAEF0CF02A80D8
:1019F4002A50D8B400EF0DF002EF0DF016EF0DF001
:101A04002A28D8A408EF0DF00AEF0DF012EF0DF01C
:101A1400000E166E000E176E000E186E000E196E74
:101A2400188E196A1EEF0DF0000E166E000E176E5A
:101A3400000E186E000E196E16501710181019109B
:101A4400D8A427EF0DF029EF0DF041EF0DF0000EB3
:101A5400126E000E136E000E146E000E156E800EC4
:101A640014127F0E15122250151212C012F013C058
:101A740013F014C014F015C015F080EF0EF02950C7
:101A8400D8A447EF0DF049EF0DF053EF0DF0000E21
:101A9400126E000E136E000E146E000E156E80EFA3
:101AA4000EF02A5029C01AF01B6A1A5E000E1B5A47
:101AB4007F0E1A24236E000E1B20246E12C01EF00B
:101AC40013C01FF014C020F015C021F0000E126ED8
:101AD400000E136E000E146E000E156E000E256EB1
:101AE400000E266E000E276E000E286E2A6AB3EFD3
:101AF4000DF02A50D8B481EF0DF083EF0DF09AEF7A
:101B04000DF0D8901E361F3620362136D890123666
:101B140013361436153628AE92EF0DF094EF0DF00F
:101B240095EF0DF01280D8902536263627362836C4
:101B340016501E5C17501F58185020581950215821
:101B4400D8A0A7EF0DF0A9EF0DF0B2EF0DF0288C9F
:101B540016501E5E17501F5A1850205A1950215AF9
:101B64002A2A190E2A64B9EF0DF0BBEF0DF07BEFB2
:101B74000DF01E501F1020102110D8B4C4EF0DF02A
:101B8400C6EF0DF0DEEF0DF02580DEEF0DF0D890FE
:101B9400123613361436153628AED3EF0DF0D5EFC2
:101BA4000DF0D6EF0DF01280D89025362636273664
:101BB40028362306D8A0240614AEE3EF0DF0E5EF93
:101BC4000DF0C9EF0DF02A6A28AEEBEF0DF0EDEF42
:101BD4000DF011EF0EF0FF0E25141A6EFF0E2614F1
:101BE4001B6EFF0E27141C6E7F0E28141D6E1A50D8
:101BF4001B101C101D10D8B402EF0EF004EF0EF0F1
:101C040008EF0EF0010E2A6E11EF0EF012A00DEF88
:101C14000EF00FEF0EF011EF0EF004EF0EF02A505D
:101C2400D8B417EF0EF019EF0EF03DEF0EF0010EE1
:101C34001226000E13221422152215A024EF0EF0F2
:101C440026EF0EF03DEF0EF012C01AF013C01BF099
:101C540014C01CF015C01DF01D341D321C321B3283
:101C64001A321AC012F01BC013F01CC014F01DC0AD
:101C740015F0234A242A24BE48EF0EF0245008E12C
:101C84002328D8A048EF0EF04AEF0EF055EF0EF0DF
:101C9400000E246E2368000E126E000E136E000EEA
:101CA400146E000E156E24BE62EF0EF0245006E191
:101CB4002304D8B060EF0EF062EF0EF06EEF0EF07A
:101CC400246A000E236E000E126E000E136E000EB8
:101CD400146E000E156E226A23C029F029A075EF38
:101CE4000EF077EF0EF07AEF0EF0148E7BEF0EF01D
:101CF400149ED8902930156E35EF0DF0120073C084
:101D0400B3F074C0B4F075C0B5F076C0B6F044C09A
:101D1400B3F045C0B4F046C0B5F047C0B6F0B3C0A8
:101D240048F0B4C049F0B5C04AF0B6C04BF0180E44
:101D3400A1EF0EF0D8904B324A3249324832E82EA5
:101D44009CEF0EF048500001B16FB26BB2BFB4EF1C
:101D54000EF0B25109E1960EB15DD8A0B4EF0EF0C9
:101D6400B6EF0EF0C0EF0EF044C044F045C045F0AD
:101D740046C046F047C047F0F1EF0FF0B6BFC5EFDD
:101D84000EF0C8EF0EF0010EC9EF0EF0000EBB6F9F
:101D9400BB51D8B4D0EF0EF0D2EF0EF0E4EF0EF05A
:101DA40044C004F045C005F046C006F047C007F043
:101DB40009EC18F004C044F005C045F006C046F034
:101DC40007C047F00001B2BFF3EF0EF0B25107E1D4
:101DD4007E0EB15DD8B0F1EF0EF0F3EF0EF0FDEF33
:101DE4000EF0000E446E000E456E000E466E000EA0
:101DF400476EF1EF0FF0000E086E000E096E000E34
:101E04000A6E4B0E0B6E44C004F045C005F046C08C
:101E140006F047C007F03AEC08F004C0B7F005C07C
:101E2400B8F006C0B9F007C0BAF0000E086E000E94
:101E3400096E000E0A6ECB0E0B6EB7C004F0B8C06C
:101E440005F0B9C006F0BAC007F03AEC08F004C0D7
:101E5400A9F005C0AAF006C0ABF007C0ACF0A9C059
:101E640014F0AAC015F0ABC016F0ACC017F044C013
:101E740018F045C019F046C01AF047C01BF00CEC2E
:101E840017F014C0BCF015C0BDF016C0BEF017C0EA
:101E9400BFF0000E0001AD6F000EAE6F000EAF6F0D
:101EA400000EB06F000E046E000E056E000E066E7E
:101EB4003F0E076EBCC008F0BDC009F0BEC00AF0FA
:101EC400BFC00BF0D4EC13F0D8B06BEF0FF06DEF94
:101ED4000FF078EF0FF0000E0001AD6F000EAE6F43
:101EE400800EAF6FBF0EB06F9AEF0FF0000E046E4E
:101EF400000E056E000E066EBF0E076EBCC008F025
:101F0400BDC009F0BEC00AF0BFC00BF0D4EC13F0A2
:101F1400D8A08FEF0FF091EF0FF09AEF0FF0000EB3
:101F24000001AD6F000EAE6F800EAF6F3F0EB06F4D
:101F340044C008F045C009F046C00AF047C00BF0A1
:101F4400BCC004F0BDC005F0BEC006F0BFC007F0C1
:101F54003AEC08F004C0B7F005C0B8F006C0B9F018
:101F640007C0BAF0B7C004F0B8C005F0B9C006F0B5
:101F7400BAC007F0ADC008F0AEC009F0AFC00AF0B7
:101F8400B0C00BF03AEC08F004C0BCF005C0BDF0E2
:101F940006C0BEF007C0BFF00001BB51D8B4D5EFF6
:101FA4000FF0D7EF0FF0E9EF0FF0BCC004F0BDC0A5
:101FB40005F0BEC006F0BFC007F009EC18F004C07D
:101FC400BCF005C0BDF006C0BEF007C0BFF0BCC089
:101FD40044F0BDC045F0BEC046F0BFC047F012009B
:101FE4000450D96EDA6A030ED9266F0078FF08F020
:101FF4006F0078FF09F06F0078FF0AF06F0078FF38
:102004000BF00750D96EDA6A6F0078FF0CF06F009E
:1020140078FF0DF06F0078FF0EF06F0078FF0FF07F
:1020240008500C5C106E09500D58116E0A500E5871
:10203400126E0B500F58136E055005240610196EBE
:102044000450D96EDA6A070ED926DF50086ED8908C
:102054000836D89008341910166E1650850FD96EAC
:10206400DA6ADF501C6E1C50D8B43BEF10F03DEF21
:1020740010F001EF11F0186A0450D96EDA6A020EFA
:10208400D9261C50DE18D8A44AEF10F04CEF10F0FB
:102094005BEF10F013501210111007E10A0E105CE0
:1020A400D8B057EF10F059EF10F05BEF10F0010EBD
:1020B400186E1850D8A461EF10F064EF10F0010E00
:1020C40065EF10F0000E176E1750D8A46CEF10F0E7
:1020D4006EEF10F07AEF10F00450D96EDA6A090E40
:1020E400D926DF50086E0850146E156A84EF10F07C
:1020F4000450D96EDA6A080ED926DF50086E0850EB
:10210400146E156A1CC008F0096A08BE090614504A
:1021140008026F00CCFF0AF06F00D0FF0BF0090239
:10212400F3500B2615500802F3500B260450D96EB9
:10213400DA6ADF500C6E0C500A241A6E000E0B2063
:102144001B6E0450D96EDA6A010ED926DF50086E70
:10215400096A1A50085C0950800A0A6E1B50800AEA
:102164000A58D8B0B8EF10F0BAEF10F0C7EF10F07B
:102174000450D96EDA6A010ED9260450E16EE26A7F
:102184006F007FFFE7FFDAEF10F01BBECEEF10F019
:10219400CCEF10F0D4EF10F00450D96EDA6ADF6A95
:1021A400DAEF10F00450D96EDA6A60006BF0DFFFEA
:1021B4000450D96EDA6A020ED926600073F0DFFF8C
:1021C4000450D96EDA6A070ED926600067F0DFFF83
:1021D4000750D96EDA6A0450E16EE26A030EE12612
:1021E4006F007BFFE6FF6F007BFFE6FF6F007BFF66
:1021F400E6FF6F007BFFE6FF010E02EF11F0000E19
:102204001200D2EC18F0D28EC0EC19F0C40E046E99
:10221400320E056E6AEC19F0090E586E1E0E576EDA
:10222400E40EE82EFED7572EFCD7582EFAD700D04E
:102234002FEC17F0090E586E1E0E576EE40EE82EA2
:10224400FED7572EFCD7582EFAD700D0060E0A6EAA
:102254000B0E25EC18F07F0E0A6E090E25EC18F013
:10226400000E0A6E0E0E25EC18F0000E0001C46F6D
:10227400000EC56F000EC66F000EC76FDEEC15F0C2
:10228400BF8C9F0E046E000ECCBA010E056E000EBC
:10229400CCBC010E066E7F0E076EF2EC0FF0000947
:1022A400D8B457EF11F059EF11F05BEF11F0DEECF9
:1022B40015F0950E046E000ECBBA010E056E000EDD
:1022C400CBB8010E066E7F0E076EF2EC0FF000091C
:1022D400D8B46FEF11F071EF11F0C8EF11F0000EE8
:1022E4002F6E000E306E000E316E410E326E000EF7
:1022F400166E000E176E7E0E186E430E196E0001D8
:102304009551046E056A066A076A010EF0EC11F035
:1023140004C012F005C013F006C014F007C015F095
:10232400BAEC0CF012C02BF013C02CF014C02DF03A
:1023340015C02EF095EC0AF02BC044F02CC045F0EB
:102344002DC046F02EC047F081EC0EF044C04CF096
:1023540045C04DF046C04EF047C04FF051EC13F06D
:102364004C500001C86FC851030DF350570F0C6E49
:10237400030E0D6ECDEC17F0950E5B6E7FC0C4F0AE
:1023840080C0C5F081C0C6F082C0C7F09F0E5B1844
:10239400D8B4CFEF11F0D1EF11F042EF11F00001FA
:1023A400C4517F5DC06FC5518059C16FC6518159F9
:1023B400C26FC7518259C36FC351C2110BE1A00E42
:1023C400C05D0F0EC159D8A0EAEF11F0ECEF11F087
:1023D40042EF11F040EF11F00DEF00F00C6E0C50D5
:1023E400D8B4F7EF11F0F9EF11F01BEF12F007BEBC
:1023F40000EF12F0FEEF11F01BEF12F004C008F032
:1024040005C009F006C00AF007C00BF0081E091E3B
:102414000A1E0B1E082A000E09220A220B2208C0DB
:102424000EF009C00FF00AC010F00BC011F023EF3A
:1024340012F004C00EF005C00FF006C010F007C083
:1024440011F00450051006100710D8A42CEF12F058
:102454002EEF12F038EF12F0000E046E000E056E2F
:10246400000E066E000E076EC9EF12F0960E0D6E8A
:1024740042EF12F00D2AD890113210320F320E3280
:10248400000E0E14086E000E0F14096E000E1014C8
:102494000A6EFE0E11140B6E085009100A100B1070
:1024A400D8A457EF12F059EF12F03CEF12F067EF97
:1024B40012F00D2A010E0E26000E0F2210221122F8
:1024C400D890113210320F320E32000E0E14086EF4
:1024D400000E0F14096E000E10140A6EFF0E111474
:1024E4000B6E085009100A100B10D8A47CEF12F0E0
:1024F4007EEF12F05BEF12F086EF12F00D06D8902B
:102504000E360F361036113610BE8BEF12F08DEFEB
:1025140012F095EF12F0020E0D6093EF12F095EFAA
:1025240012F080EF12F00DB09AEF12F09CEF12F05F
:102534009DEF12F0109ED8900D320DC008F0096A7C
:102544000A6A0B6A08C00BF00A6A096A086A08502A
:102554000E1209500F120A5010120B5011120C5087
:10256400D8B4B7EF12F0B9EF12F0C1EF12F007BE12
:10257400C0EF12F0BEEF12F0C1EF12F0118E0EC0D8
:1025840004F00FC005F010C006F011C007F01200EF
:1025940020EE15F0070EDE6AE806FDE21D6A010E64
:1025A4001E6E1150121013101410D8A4DCEF12F088
:1025B400DEEF12F0E0EF12F016EF13F01E50150FDD
:1025C400D96EDA6A11C004F012C005F013C006F027
:1025D40014C007F00A0E086E000E096E000E0A6E93
:1025E400000E0B6E76EC16F00450DF6E11C004F092
:1025F40012C005F013C006F014C007F00A0E086EEE
:10260400000E096E000E0A6E000E0B6E8CEC15F0B7
:1026140004C011F005C012F006C013F007C014F096
:102624001D2A1E2AD3EF12F01F6A47EF13F01F5022
:102634001E5CD8A020EF13F022EF13F02DEF13F05F
:102644001F50150FD96EDA6ADF500A6E1F5025EC41
:1026540018F046EF13F01F50D8B433EF13F035EFF2
:1026640013F046EF13F01F50150FD96EDA6ADF50DE
:10267400D8A43FEF13F041EF13F046EF13F00F0E21
:102684000A6E1F5025EC18F01F2A1F501E5CD8B08C
:102694004EEF13F050EF13F019EF13F012004E3415
:1026A4004F34556E5550D8A45AEF13F05CEF13F025
:1026B40066EF13F0000E4C6E000E4D6E000E4E6E63
:1026C400000E4F6ED3EF13F04CC050F04DC051F0DC
:1026D4004EC052F04FC053F0200E76EF13F0D89056
:1026E4005332523251325032E82E71EF13F05050BF
:1026F400546E4E8EFF0E4C16FF0E4D16FF0E4E16E8
:10270400000E4F16960E555E55BE8DEF13F08BEFEF
:1027140013F0A3EF13F05550800A970FD8B095EF3C
:1027240013F097EF13F099EF13F05CEF13F0D890D8
:102734004F324E324D324C32553E99EF13F0BBEFCF
:1027440013F01F0E5564A9EF13F0ABEF13F0B3EFC2
:1027540013F05CEF13F0D8904C364D364E364F36AE
:1027640055065550D8A4B9EF13F0BBEF13F0ADEFF5
:1027740013F05450D8B4C1EF13F0C3EF13F0CBEF00
:1027840013F04F1E4E1E4D1E4C6C000E4D224E2259
:102794004F224CC04CF04DC04DF04EC04EF04FC0D7
:1027A4004FF01200000E04140C6E000E05140D6E92
:1027B400800E06140E6E7F0E07140F6E0C500D1053
:1027C4000E100F10D8A4E9EF13F0EBEF13F0F3EFB2
:1027D40013F0000E046E000E056E000E066E000E61
:1027E400076E000E08140C6E000E09140D6E800E98
:1027F4000A140E6E7F0E0B140F6E0C500D100E107B
:102804000F10D8A408EF14F00AEF14F012EF14F02C
:10281400000E086E000E096E000E0A6E000E0B6E9E
:1028240007AE17EF14F019EF14F022EF14F0046C54
:10283400051ED8B0052A061ED8B0062A800E0756F3
:102844000BAE27EF14F029EF14F032EF14F0086CFC
:10285400091ED8B0092A0A1ED8B00A2A800E0B56BF
:10286400000E041A000E051A000E061A800E071A2E
:10287400000E081A000E091A000E0A1A800E0B1A0E
:102884000850045C095005580A5006580B50075864
:10289400D8B04FEF14F051EF14F054EF14F0D89077
:1028A40055EF14F0D88012006F00E8FF02F06F00BB
:1028B400ECFF03F0390195A162EF14F064EF14F01A
:1028C4006FEF14F0A5A169EF14F06BEF14F06FEF44
:1028D40014F088EC19F0C7EF14F093AF74EF14F010
:1028E40076EF14F081EF14F0A3AF7BEF14F07DEFDB
:1028F40014F081EF14F0EBEC17F0C7EF14F096A38B
:1029040086EF14F088EF14F093EF14F0A6A38DEF84
:1029140014F08FEF14F093EF14F0CEEC14F0C7EF33
:1029240014F095AD98EF14F09AEF14F0A5EF14F0AD
:10293400A5AD9FEF14F0A1EF14F0A5EF14F046EC51
:1029440019F0C7EF14F096A1AAEF14F0ACEF14F04D
:10295400B7EF14F0A6A1B1EF14F0B3EF14F0B7EF92
:1029640014F02BEC16F0C7EF14F095AFBCEF14F095
:10297400BEEF14F0C7EF14F0A5AFC3EF14F0C5EF2A
:1029840014F0C7EF14F03CEC19F060000FF0FBFFFB
:1029940060000BF0FAFF11001BEC19F00009D8B429
:1029A400D6EF14F0D8EF14F0E1EF14F0030E0001A9
:1029B4006A6F3D01609B90EC17F02CEF15F026EC4C
:1029C40019F00009D8B4E9EF14F0EBEF14F0FEEFBE
:1029D40014F0FAEC18F00009D8B4F3EF14F0F5EFA2
:1029E40014F0FEEF14F0010E00016A6F3D016099CE
:1029F400ADEC18F02CEF15F005EC19F00009D8B483
:102A040006EF15F008EF15F019EF15F0FAEC18F0D1
:102A14000009D8B410EF15F012EF15F019EF15F006
:102A2400020E00016A6F3D016099FAEF14F010EC98
:102A340019F00009D8B421EF15F023EF15F02AEFAF
:102A440015F0030E00016A6F3D01609D2CEF15F037
:102A54003D01609900016A511200BA6A060EBB6E0C
:102A6400BC6ABD6ABE6ABF6A3A01426B060E526F07
:102A7400626B726B826B926B500EC26EF90EC36EF8
:102A8400EC0EC46EF30EC56EC66AB00EC76E500E61
:102A9400406FC00E506F606B010E706F806B906B57
:102AA400416B516B616B716B816B800E916F4369EC
:102AB400536963697369070E836F93694469546941
:102AC400646974690F0E846F94695A6B5B6B6A6BEB
:102AD4006B6B7A6B7B6B190EC16F130EDF6F1F0E5E
:102AE400146F090EE36F230E096F0A0EE46F240EB0
:102AF4000A6F120EDE6F1E0E126F456B466B476B2C
:102B0400556B566B576B656B666B676B856B866B2A
:102B1400876B1200000E0C6E000E0D6E000E0E6E12
:102B2400000E0F6E085009100A100B10D8B49DEF58
:102B340015F09FEF15F0D5EF15F0010E106EA9EF0B
:102B440015F0D890083609360A360B36102A0BAE23
:102B5400AEEF15F0B0EF15F0A3EF15F0D8900C36EA
:102B64000D360E360F360850045C095005580A50CD
:102B740006580B500758D8A0C2EF15F0C4EF15F053
:102B8400CDEF15F00850045E0950055A0A50065A54
:102B94000B50075A0C80D8900B320A320932083293
:102BA400102EB0EF15F00CC004F00DC005F00EC0EF
:102BB40006F00FC007F01200000E2F6E000E306EEC
:102BC400C80E316E420E326E000E166E000E176E77
:102BD4007E0E186E430E196E00019F51046E056A35
:102BE400066A076A010EF0EC11F004C012F005C089
:102BF40013F006C014F007C015F0BAEC0CF012C0C4
:102C04002BF013C02CF014C02DF015C02EF095EC51
:102C14000AF02BC044F02CC045F02DC046F02EC065
:102C240047F081EC0EF044C04CF045C04DF046C076
:102C34004EF047C04FF051EC13F04C50566E5650C6
:102C4400116E126A136A146ACAEC12F09F0E5B6E5C
:102C540012003D0164A531EF16F033EF16F03EEF9C
:102C640016F063A538EF16F03AEF16F03EEF16F0C3
:102C7400E1EC18F075EF16F064AF43EF16F045EF92
:102C840016F063EF16F063AF4AEF16F04CEF16F050
:102C940063EF16F000016951D8B453EF16F055EF05
:102CA40016F05DEF16F0696B3D016391639F98EC3C
:102CB40018F075EF16F0ADEC18F0E1EC18F075EFC4
:102CC40016F064A368EF16F06AEF16F075EF16F0CD
:102CD40063A36FEF16F071EF16F075EF16F0B7EC13
:102CE40019F03D0163931200085009100A100B10EB
:102CF400D8B47FEF16F081EF16F0B1EF16F0010EA5
:102D04000C6E8BEF16F0D890083609360A360B365F
:102D14000C2A0BAE90EF16F092EF16F085EF16F03A
:102D24000850045C095005580A5006580B500758BF
:102D3400D8A09FEF16F0A1EF16F0A9EF16F00850F7
:102D4400045E0950055A0A50065A0B50075AD89087
:102D54000B320A32093208320C2E92EF16F004C0FC
:102D640004F005C005F006C006F007C007F0120025
:102D7400040E3D015D6F800E5E6F080E5F6F030EE3
:102D8400656F636B646B606B566B510E3A016A6FCF
:102D9400510E6B6FEFEC18F03D01649164955D8FFB
:102DA400050EE82EFED70000000000000000000021
:102DB400000000003D01639163956485000E0001ED
:102DC4007D6F000E7E6F1200800EF66E310EF76E70
:102DD400000EF86E00EE85F010EE24F009006F008E
:102DE400D7FFEEFFE550E150F9E100EE60F0250E6B
:102DF400EE6AE806FDE100EE59F0070EEE6AE80619
:102E0400FDE1080ED56E000ED66E000ED76E0001E1
:102E140003EF11F0000E181A000E191A000E1A1AF8
:102E2400800E1B1A14C004F015C005F016C006F07D
:102E340017C007F018C008F019C009F01AC00AF04A
:102E44001BC00BF03AEC08F004C014F005C015F0F8
:102E540006C016F007C017F01200010E0A6E0C0E21
:102E640025EC18F0000E0A6E0B0E25EC18F0010E7E
:102E74000A6E090E25EC18F0070E0A6E0A0E25ECF0
:102E840018F0110E0D6E3C0E0C6ECB0EE82EFED714
:102E94000C2EFCD70D2EFAD70000120082EC18F08D
:102EA4000009D8A458EF17F05AEF17F06FEF17F096
:102EB400010E0001606F05C061F006C062F0696B2D
:102EC40007C063F008C064F009C065F0666B686B06
:102ED400000E676F6A6B70EC17F01200000164510A
:102EE4006511D8B478EF17F07AEF17F088EF17F080
:102EF40064517EEC19F000016951D8B484EF17F0E5
:102F040086EF17F088EF17F0AEEC19F0000161516D
:102F1400612583EC19F0ABEC19F01200BDEC19F04B
:102F24009CEC19F059EC19F0A1EC19F03D015D9FEE
:102F340031EC19F03D01649164955D8F050EE82E26
:102F4400FED70000000000000000000000000000A8
:102F54003D016391639564851200D29A3901A19170
:102F6400D280000E046E000E056E79EC19F0390162
:102F7400A591D282860E046E330E056E74EC19F0A0
:102F840039019581A79BD284000E046E000E056E54
:102F94006FEC19F012000F6AE1EF17F00C500F24D8
:102FA4000E6E60003BF0F6FF100EF76EF86A080034
:102FB4006F00D4FF0AF00F2825EC18F00F2A0D50EB
:102FC4000F5CD8A0E8EF17F0EAEF17F0D0EF17F096
:102FD40012005A50B76E600067F1B6FF0001C95184
:102FE400CA11D8B4F8EF17F0FAEF17F006EF18F09B
:102FF40002D806EF18F00500FA6EC951FD6ECA51E9
:10300400FE6EFF6AFA5012003901A39F12000450A9
:10301400051006100710D8B412EF18F014EF18F0CA
:103024001CEF18F0000E041A000E051A000E061A02
:10303400800E071A04C004F005C005F006C006F0AF
:1030440007C007F012000B6E82EC18F00009D8A438
:103054002EEF18F030EF18F026EF18F00BC083F0C5
:103064000AC084F0066A000E056E830E076E096AB4
:10307400020E086E50EC17F01200000179517A111B
:10308400D8B447EF18F049EF18F055EF18F002D80C
:1030940055EF18F00500FA6E7951FD6E7A51FE6E07
:1030A400FF6AFA5012001200060EB76EB66A700E6E
:1030B400B96EB750046EB650596E04C05AF0840EFF
:1030C4000001C96F330ECA6F3901A39F938F900E0D
:1030D400B86E12003D01149F3901929D929B929902
:1030E400400E3D01156F166B196B1C6B126B136B45
:1030F400176B186B1B6B1A6B1785020E146F12007B
:10310400010E046E00016051D8A48BEF18F08DEF0E
:1031140018F096EF18F03D0161AF93EF18F095EFBA
:1031240018F096EF18F0046A045012000001675179
:103134006811D8B4A0EF18F0A2EF18F0A5EF18F0BA
:10314400675192EC19F0D880000161358DEC19F0CB
:10315400B4EC19F01200B7EC19F0BAEC19F000094C
:10316400D8B4B7EF18F0B9EF18F0BFEF18F0000EAD
:1031740092EC19F0000E97EC19F0120000FF010018
:10318400010000FFFF0000010001FF007FFE0100BD
:1031940000000000040400FE01000000000005011E
:1031A40050EC19F02FEC15F06CEC18F056EC18F00C
:1031B400BAEC16F0A5EC19F0AFEC17F01200000110
:1031C400606B000E626F6169636B666BBDEC19F036
:1031D4009CEC19F0A1EC19F0120039019681968348
:1031E400958D958F3D0164856483648F60811200A1
:1031F4003D015EBB00EF19F003EF19F0010E04EF7F
:1032040019F0000E12003D0161B70BEF19F00EEF3B
:1032140019F0010E0FEF19F0000E12003D0160BD10
:1032240016EF19F019EF19F0010E1AEF19F0000E4C
:1032340012003D0160BB21EF19F024EF19F0010EDB
:1032440025EF19F0000E12003D0161A72CEF19F0D3
:103254002FEF19F0010E30EF19F0000E12003901B2
:1032640096819683958D958F3D0164856483648FE3
:103274006081120020EE63F0DF50DF2AD96EDA6A33
:10328400DF5097EC19F0120000016651D96EDA6A2A
:10329400B1EC19F0DF6E0001662B1200600E3901EB
:1032A400D96FDB6BDD6B080EDF6FDE6B120039014B
:1032B40096919693959D959F3D01646B606B12006A
:1032C400010E00017F27000E802381238223120038
:1032D40004C0C9F005C0CAF0120004C077F005C0EC
:1032E40078F0120004C079F005C07AF0120004C02E
:1032F4007BF005C07CF01200046E600013F056FDF4
:103304001200046E600013F058FD12003901A591FB
:103314003FEC18F01200016E600007F058FD120037
:10332400016E600007F056FD1200016E600007F0A8
:1033340055FD12003D01609B609D609912003D01A6
:10334400626B62851200A8EC19F012003901E5974E
:1033540012003D015D8B12003D015D8D12003D01A7
:10336400545112003D015D8B12003D015D9D120020
:103374003D01565112003D01636B1200B88E1200DC
:043384001200120021
:020000040030CA
:0A0000008FFFF7FF9FFFFFFFFFFFD8
:00000001FF
